:100000000C9476010C949E010C949E010C949E011C
:100010000C949E010C949E010C949E010C949E01E4
:100020000C949E010C949E010C94EA0F0C94B60E55
:100030000C949E010C949E010C949E010C949E01C4
:100040000C949E010C949E010C949E010C949E01B4
:100050000C949E010C949E010C949E010C949908A2
:100060000C949E010C949E010C949E010C949E0194
:100070000C949E010C949E010C949E010C949E0184
:100080000C949E010C949E010C949E010C949E0174
:100090000C949E010C949E010C949E010C949E0164
:1000A0000C949E010C949E010C949E01D709DA09D0
:1000B000C909CD09D309FB09FB09FB09DE09E209DE
:1000C000E609EC09F009FB09F60907060504010039
:1000D000080A0B0C0D090000000200090F000003C4
:1000E0000401000C000000000000000000000000FF
:1000F00000000000040802011040804010204080F1
:10010000408008020401804020100201108010206D
:100110004040040404040403040502020202040330
:100120000202020206060606060604040202020491
:10013000000000002300260029002C002F000000F2
:100140000000250028002B002E00310000000000D8
:10015000240027002A002D003000080B00020202B4
:100160000100090400000102020000052400100142
:1001700005240101010424020605240600010705E7
:10018000810310004009040100020A000000070575
:1001900002024000000705830240000000C1808188
:1001A000C11201000202000040412336800001011B
:1001B00002000112010002000000404123368000CD
:1001C000010102000141726475696E6F204C4C435D
:1001D0000041726475696E6F204C656F6E61726468
:1001E0006F000403090400000000000000002A2B37
:1001F00028000000000000000000000000000000D7
:100200000000000000002C9EB4A0A1A2A434A6A768
:10021000A5AE362D3738271E1F2021222324252660
:10022000B333B62EB7B89F8485868788898A8B8C2E
:100230008D8E8F909192939495969798999A9B9C76
:100240009D2F3130A3AD350405060708090A0B0CB4
:100250000D0E0F101112131415161718191A1B1C56
:100260001DAFB1B0B5000904020001030000000990
:1002700021010100012265000705840340000105FA
:10028000010902A1010901A100850105091901293E
:1002900003150025019503750181029501750581FE
:1002A0000305010930093109381581257F75089545
:1002B000038106C0C005010906A1018502050719D1
:1002C000E029E71500250175019508810295017562
:1002D000088103950675081500256505071900298D
:1002E000658100C07A08590B95118B0811241FBE37
:1002F000CFEFDAE0DEBFCDBF12E0A0E0B1E0ECE38B
:10030000FAE202C005900D92A83AB107D9F723E0AE
:10031000A8EAB2E001C01D92A135B207E1F712E0F0
:10032000CAEED2E004C02297FE010E94E113C43E4F
:10033000D107C9F70E94770B0C9411150C9400009B
:10034000FC01158614861386128611861086178284
:1003500016821582148213821282118210821786ED
:100360001686118A108A138A128A089508956F9248
:100370007F928F929F92AF92BF92CF92DF92EF9235
:10038000FF920F931F93CF93DF93EC018B018A852C
:100390009B85892B09F474C0D12C8C85D816E8F480
:1003A000ED2CF12C8E859F85F701EE0FFF1FE00FDE
:1003B000F11F91838083EA85FB85EE0DFF1D61E0CF
:1003C00080810E94350AEA85FB85EE0DFF1D61E004
:1003D00080810E94FC09D394E0CF8AE090E00E94E3
:1003E0002E09D12C8C85D816A0F4ED2CF12CEA85A1
:1003F000FB85EE0DFF1D60E080810E94FC09EA850F
:10040000FB85EE0DFF1D60E080810E94350AD394CC
:10041000E9CF0E94E3086B017C010E94E3086C199C
:100420007D098E099F092E853F854901A12CB12C9C
:10043000681579058A059B0518F50E94E3083B01BC
:100440006C187D08912C8C85981638F7A92CB12C46
:10045000AA85BB85AA0DBB1D8C910E946B0A892BB6
:1004600051F4F501EE0FFF1FE00FF11F8081918124
:100470006816790610F09394E6CF71826082FBCF04
:10048000DF91CF911F910F91FF90EF90DF90CF9070
:10049000BF90AF909F908F907F906F900895EF9254
:1004A000FF920F931F93CF93DF931F92CDB7DEB7C9
:1004B0007C018B01DC0113961C921E9212971596FB
:1004C0001C921E92149717961C921E9216971996BC
:1004D0001C921E921897413120F080E11C968C935B
:1004E00002C0FC014487D7011A968D919C911B97FD
:1004F000892B11F030E00FC0F701848590E029834B
:100500000E94E513D7011B969C938E931A9729811D
:10051000892B81F715C0F7018485381780F4832F64
:1005200090E0F801E80FF91F4081D7011A96ED918C
:10053000FC911B97E80FF91F40833F5FECCF2587A5
:100540000F90DF91CF911F910F91FF90EF90089541
:10055000CF93DF93EC018D858F3F69F061E00E94BE
:10056000FC0960E08D850E94350A88EC90E0DF91FF
:10057000CF910C942E09DF91CF910895CF93DF9303
:10058000EC018D858F3F69F061E00E94FC0961E01C
:100590008D850E94350A88EC90E0DF91CF910C9414
:1005A0002E09DF91CF910895DF92EF92FF920F9382
:1005B0001F93CF93DF93CDB7DEB7A0970FB6F89414
:1005C000DEBF0FBECDBF8C017B01D42E8FEF840F19
:1005D000823020F4C8010E94BE0203C0C8010E94FC
:1005E000A802D801ED91FC910190F081E02DB701B6
:1005F000C8010995C8010E94A802B2E0DB122FC011
:10060000D801ED91FC910190F081E02DBE016F5F6A
:100610007F4FC801099540E0F80184854817F8F438
:10062000842F90E0880F991FF701E80FF91F21E050
:1006300030E02C0F3D1F820F931FD8011E962D9185
:100640003C911F97DC018D919C91281B390B808177
:100650009181820F931F918380834F5FDDCFA0969E
:100660000FB6F894DEBF0FBECDBFDF91CF911F91C3
:100670000F91FF90EF90DF900895EF92FF920F930C
:10068000CF93DF93EC017901202F8FE991E09983DB
:1006900088831B821A821D821C821F821E821986F9
:1006A00018861B861A86CE010E944F02FF86EE86B0
:1006B000DF91CF910F91FF90EF900895CF93DF934B
:1006C000EC0189E991E0998388838A859B8500976D
:1006D00011F00E947D148C819D81009711F00E9481
:1006E0007D1488859985009711F00E947D148A8178
:1006F0009B81009711F00E947D148E819F8100974D
:1007000021F0DF91CF910C947D14DF91CF9108956A
:1007100061E082E00E94FC0961E084E00E94FC0943
:1007200061E083E00E94FC0961E085E00E94FC0931
:1007300060E080E10E94FC0960E08AE00E94FC0920
:1007400060E08FE00E94FC0960E08EE00E94FC09FE
:1007500060E971E080E090E00E94060989E00E9473
:100760008E099093BF028093BE0288E00E948E099A
:100770009093BD028093BC0208950E94880340E8D4
:1007800055E260E070E087EE92E00C94530B80E15C
:100790000E946B0A21E030E0019711F420E030E084
:1007A000C90108958FE00E946B0A21E030E00197B3
:1007B00011F420E030E0C90108958EE00E946B0A38
:1007C00021E030E0019711F420E030E0C901089504
:1007D0008AE00E946B0A21E030E0019711F420E0EA
:1007E00030E0C90108952F923F924F925F926F922D
:1007F0007F928F929F92AF92BF92CF92DF92EF92B1
:10080000FF920F931F93CF93DF9300D000D0CDB70B
:10081000DEB785E10E948E09BC01882777FD8095AF
:10082000982F0E94A61221E233E240EA5BE30E9485
:100830005A136B017C019B01AC0160914A017091DC
:100840004B0180914C0190914D010E945613181656
:100850000CF085C0A0900801B090090181E0A81AB1
:10086000B108F501EE0FFF1FEE0FFF1FE65BFE4F15
:10087000A701960160817181828193810E94071294
:1008800087FF6DC00EE411E0612C712C6A147B04AB
:1008900094F44301EFEF8E1A9E0AF80121913191F1
:1008A000419151918F01C701B6010E94561387FFF4
:1008B00004C03401EBCF612C712CC301880F991F48
:1008C000880F991FFC01E65BFE4F80809180A2801B
:1008D000B380FC01E65FFE4F208031804280538070
:1008E00083010F5F1F4F000F111F000F111FF80131
:1008F000E65FFE4FA2019101608171818281938147
:100900000E94A21169837A838B839C83A70196013D
:10091000C501B4010E94A2119B01AC0169817A81D9
:100920008B819C810E945A136B017C01F801E65B6C
:10093000FE4F2081318142815381C501B4010E9463
:10094000A2119B01AC01C701B6010E940B12A201CA
:1009500091010E94A3110E947312CB0102C08FEF7C
:100960009FEF0F900F900F900F90DF91CF911F91FD
:100970000F91FF90EF90DF90CF90BF90AF909F903E
:100980008F907F906F905F904F903F902F90089541
:100990002F923F924F925F926F927F928F929F928F
:1009A000AF92BF92CF92DF92EF92FF920F931F937D
:1009B000CF93DF9300D000D0CDB7DEB784E10E94A3
:1009C0008E09BC01882777FD8095982F0E94A6127A
:1009D00021E233E240EA5BE30E945A136B017C019F
:1009E0009B01AC0160914A0170914B0180914C01D7
:1009F00090914D010E94561318160CF085C0A090DE
:100A00000801B090090181E0A81AB108F501EE0FC4
:100A1000FF1FEE0FFF1FE65BFE4FA70196016081EF
:100A20007181828193810E94071287FF6DC00EE45D
:100A300011E0612C712C6A147B0494F44301EFEFF4
:100A40008E1A9E0AF80121913191419151918F01A5
:100A5000C701B6010E94561387FF04C03401EBCFD3
:100A6000612C712CC301880F991F880F991FFC01FD
:100A7000E65BFE4F80809180A280B380FC01E65F40
:100A8000FE4F208031804280538083010F5F1F4FD3
:100A9000000F111F000F111FF801E65FFE4FA201AA
:100AA000910160817181828193810E94A211698389
:100AB0007A838B839C83A7019601C501B4010E94B0
:100AC000A2119B01AC0169817A818B819C810E947A
:100AD0005A136B017C01F801E65BFE4F20813181E6
:100AE00042815381C501B4010E94A2119B01AC0156
:100AF000C701B6010E940B12A20191010E94A3112D
:100B00000E947312CB0102C08FEF9FEF0F900F90E6
:100B10000F900F90DF91CF911F910F91FF90EF9069
:100B2000DF90CF90BF90AF909F908F907F906F900D
:100B30005F904F903F902F90089589E00E948E091A
:100B40002091BE023091BF02821B930B9093C3028F
:100B50008093C20288E00E948E092091BC023091ED
:100B6000BD02821B930B9C019093C1028093C00233
:100B70004091C2025091C302449FB001459F700D45
:100B8000700D1124229FC001239F900D900D112400
:100B9000860F971F089541E068EB72E088EA92E0C3
:100BA0000C94D40281E090E02091BA023091BB0213
:100BB0002639310510F080E090E0089581E090E062
:100BC0002091B8023091B9022639310510F080E049
:100BD00090E0089561EA71E087EE92E00E94C80B10
:100BE0006091C8027091C9024AE050E087EE92E03D
:100BF0000E94A20C69EA71E087EE92E00E94E50B88
:100C000061EB71E087EE92E00E94C80B0E94E3085E
:100C10007093C7026093C6020E94CB050E94E3084E
:100C20002091C6023091C702621B730B7093C702FA
:100C30006093C60262EC71E087EE92E00E94C80BFE
:100C40006091C6027091C7024AE050E087EE92E0E0
:100C50000E949A0C65ED71E087EE92E00E94E50B30
:100C600069ED71E087EE92E00E94C80B0E94E308F4
:100C70007093C7026093C6020E94D2059093C5028A
:100C80008093C4020E94E3082091C6023091C702FB
:100C9000621B730B7093C7026093C6026091C4021B
:100CA0007091C5024AE050E087EE92E00E949A0CF3
:100CB00062EC71E087EE92E00E94C80B6091C60280
:100CC0007091C7024AE050E087EE92E00E949A0CD1
:100CD00065ED71E087EE92E00E94E50B6AEE71E04F
:100CE00087EE92E00E94C80B0E94E3087093C7024F
:100CF0006093C6020E94DE059093C5028093C402F1
:100D00000E94E3082091C6023091C702621B730B58
:100D10007093C7026093C6026091C4027091C502CD
:100D20004AE050E087EE92E00E949A0C62EC71E09B
:100D300087EE92E00E94C80B6091C6027091C702D4
:100D40004AE050E087EE92E00E949A0C65ED71E077
:100D500087EE92E00E94E50B6CEF71E087EE92E087
:100D60000E94C80B0E94E3087093C7026093C602FA
:100D70000E94E8039093C5028093C4020E94E30896
:100D80002091C6023091C702621B730B7093C70299
:100D90006093C6026091C4027091C5024AE050E0BF
:100DA00087EE92E00E949A0C62EC71E087EE92E08E
:100DB0000E94C80B6091C6027091C7024AE050E0E1
:100DC00087EE92E00E949A0C65ED71E087EE92E06A
:100DD0000E94E50B6DE072E087EE92E00E94C80B86
:100DE0000E94E3087093C7026093C6020E94C70383
:100DF0009093C5028093C4020E94E3082091C6022A
:100E00003091C702621B730B7093C7026093C602D6
:100E10006091C4027091C5024AE050E087EE92E012
:100E20000E949A0C62EC71E087EE92E00E94C80B7F
:100E30006091C6027091C7024AE050E087EE92E0EE
:100E40000E949A0C65ED71E087EE92E00E94E50B3E
:100E50006CE172E087EE92E00E94C80B0E94E3080A
:100E60007093C7026093C6020E94DD039093C5028F
:100E70008093C4020E94E3082091C6023091C70209
:100E8000621B730B7093C7026093C6026091C40229
:100E90007091C5024AE050E087EE92E00E949A0C01
:100EA00062EC71E087EE92E00E94C80B6091C6028E
:100EB0007091C7024AE050E087EE92E00E949A0CDF
:100EC00065ED71E087EE92E00E94E50B60E372E071
:100ED00087EE92E00E94C80B0E94E3087093C7025D
:100EE0006093C6020E94D2039093C5028093C4020D
:100EF0000E94E3082091C6023091C702621B730B67
:100F00007093C7026093C6026091C4027091C502DB
:100F10004AE050E087EE92E00E949A0C62EC71E0A9
:100F200087EE92E00E94C80B6091C6027091C702E2
:100F30004AE050E087EE92E00E949A0C65ED71E085
:100F400087EE92E00E94E50B65E472E087EE92E0A6
:100F50000E94C80B0E94E3087093C7026093C60208
:100F60000E94C8049093C5028093C4020E94E308C3
:100F70002091C6023091C702621B730B7093C702A7
:100F80006093C6026091C4027091C5024AE050E0CD
:100F900087EE92E00E949A0C62EC71E087EE92E09C
:100FA0000E94C80B6091C6027091C7024AE050E0EF
:100FB00087EE92E00E949A0C65ED71E087EE92E078
:100FC0000E94E50B6CE572E087EE92E00E94C80B90
:100FD0000E94E3087093C7026093C6020E94F30365
:100FE0009093C5028093C4020E94E3082091C60238
:100FF0003091C702621B730B7093C7026093C602E5
:101000006091C4027091C5024AE050E087EE92E020
:101010000E949A0C62EC71E087EE92E00E94C80B8D
:101020006091C6027091C7024AE050E087EE92E0FC
:101030000E949A0C65ED71E087EE92E00E94E50B4C
:1010400064E772E087EE92E00E94C80B0E94E3081A
:101050007093C7026093C6020E949D059093C502DB
:101060008093C4020E94E3082091C6023091C70217
:10107000621B730B7093C7026093C6026091C40237
:101080007091C5024AE050E087EE92E00E949A0C0F
:1010900062EC71E087EE92E00E94C80B6091C6029C
:1010A0007091C7024AE050E087EE92E00E949A0CED
:1010B00065ED71E087EE92E00E94E50B68EE73E06B
:1010C00080E090E00E94060987EE92E00E94D10B3A
:1010D00087EE92E00E94D10B87EE92E00E94D10B46
:1010E0008091C8029091C90201969093C9028093A1
:1010F000C80208950F938AEC92E00E94A0010FEFBE
:1011000020EA3FE042E066E071E088EA92E00E9477
:101110003D030F9108958FE991E09093A902809388
:10112000A80288EA92E00E945E038AEC92E00C94A6
:10113000B6011F920F920FB60F9211242F933F9377
:101140008F939F93AF93BF938091DF029091E002C2
:10115000A091E102B091E2023091DE0223E0230F80
:101160002D3720F40196A11DB11D05C026E8230FDF
:101170000296A11DB11D2093DE028093DF029093A1
:10118000E002A093E102B093E2028091E302909129
:10119000E402A091E502B091E6020196A11DB11D05
:1011A0008093E3029093E402A093E502B093E602F9
:1011B000BF91AF919F918F913F912F910F900FBE53
:1011C0000F901F9018953FB7F8948091E30290918B
:1011D000E402A091E502B091E60226B5A89B05C005
:1011E0002F3F19F00196A11DB11D3FBF6627782F33
:1011F000892F9A2F620F711D811D911D42E0660F8C
:10120000771F881F991F4A95D1F70895CF92DF92D3
:10121000EF92FF92CF93DF936B017C010E94E30872
:10122000EB01C114D104E104F10489F00E945E10C5
:101230000E94E3086C1B7D0B683E734090F381E0D5
:10124000C81AD108E108F108C851DC4FEACFDF9194
:10125000CF91FF90EF90DF90CF900895019739F0F4
:10126000880F991F880F991F02970197F1F708952A
:10127000789484B5826084BD84B5816084BD85B571
:10128000826085BD85B5816085BDEEE6F0E0808138
:1012900081608083E1E8F0E0108280818260808359
:1012A000808181608083E0E8F0E0808181608083DC
:1012B000E1E9F0E0808182608083808181608083C9
:1012C000E0E9F0E0808181608083E1ECF0E0808102
:1012D000846080838081826080838081816080835C
:1012E000E3ECF0E0808181608083E0ECF0E08081DD
:1012F00082608083E2ECF0E0808181608083EAE7B5
:10130000F0E080818460808380818260808380813E
:10131000816080838081806880830895823108F0B5
:101320008251E82FF0E0E653FF4FE49180917B007B
:10133000E3FB222720F930E095E0220F331F9A9536
:10134000E1F78F7D822B80937B00E77080918A018B
:1013500020E4829FC0011124E82BE0937C0080915F
:101360007A00806480937A0080917A0086FDFCCFB9
:10137000809178002091790090E0922B089590E080
:10138000FC013197EF30F105B0F5EA5AFF4F0C94AC
:10139000DF13809180008F7703C0809180008F7D64
:1013A00080938000089580918000877FF9CF84B575
:1013B0008F7702C084B58F7D84BD089580919000A1
:1013C0008F7707C0809190008F7D03C0809190003F
:1013D000877F8093900008958091C0008F7703C02D
:1013E0008091C0008F7D8093C00008958091C200DD
:1013F000877F8093C2000895CF93DF9390E0FC0134
:10140000EC50FF4F2491FC01EE5EFE4F8491882347
:1014100049F190E0880F991FFC01E45BFE4FA59114
:10142000B491825C9E4FFC01C591D4919FB761112C
:1014300008C0F8948C91209582238C938881822314
:101440000AC0623051F4F8948C91322F3095832386
:101450008C938881822B888304C0F8948C91822B92
:101460008C939FBFDF91CF9108950F931F93CF93DC
:10147000DF931F92CDB7DEB7282F30E0F901EA5293
:10148000FF4F8491F901EC50FF4F1491F901EE5E8A
:10149000FE4F04910023C9F0882321F069830E9444
:1014A000BF096981E02FF0E0EE0FFF1FE25CFE4F05
:1014B000A591B4919FB7F8948C91611103C01095D8
:1014C000812301C0812B8C939FBF0F90DF91CF911F
:1014D0001F910F910895CF93DF93282F30E0F901EA
:1014E000EA52FF4F8491F901EC50FF4FD491F9017A
:1014F000EE5EFE4FC491CC2391F081110E94BF0992
:10150000EC2FF0E0EE0FFF1FE05DFE4FA591B491D0
:101510002C912D2381E090E021F480E002C080E056
:1015200090E0DF91CF9108950E940C15CF93DF9347
:101530001F92CDB7DEB76983DC01ED91FC9102808B
:10154000F381E02D41E050E0BE016F5F7F4F0995D0
:101550000F90DF91CF910895CF93DF93EC018C85AD
:101560009D8597FF05C082E00E948B0D9D878C872B
:101570008C859D85DF91CF91089583E00C94E00FD9
:10158000FC018485958597FD06C082E00E94330D9D
:1015900090E00196089582E00E94330D90E0089556
:1015A000FC018485958597FD05C02FEF3FEF3587BA
:1015B0002487089582E00C948B0DCF93DF93EC0188
:1015C00080919201882331F083E00E94BC0D1816AF
:1015D000190634F081E090E09B838A8380E090E0FC
:1015E000DF91CF910895FC0120812E5F208342E49A
:1015F00050E06AE571E080E80C94570EFC018181AF
:101600009081913A59F4813209F03CC047E050E0B2
:101610006BE871E080E00E94570E43C0913291F573
:10162000803239F467E070E08BE891E00E94880E28
:1016300006C0823209F035C0828180939201809188
:101640008B0190918C01A0918D01B0918E01803B16
:101650009440A105B105C1F48091920180FD14C0B0
:1016600087E797E790930108809300082BE088E1D3
:1016700090E00FB6F894A895809360000FBE209379
:1016800060000FC080E0089588E10FB6F894809361
:101690006000109260000FBEA89510920108109291
:1016A000000881E008952FEF3FEFFC013587248784
:1016B00008951092EA021092E90288EE93E0A0E009
:1016C000B0E08093EB029093EC02A093ED02B09314
:1016D000EE028EE892E09093E8028093E7028FEFAB
:1016E0009FEF9093F4028093F302089508950E946F
:1016F00038090E94760B87E393E00E9440100E9415
:10170000BD03C0E0D0E00E94EA052097E1F30E940B
:101710000000F9CFCF92DF92EF92FF920F931F93C9
:10172000CF93DF936C017A01EB01E60EF71E00E028
:1017300010E0CE15DF0561F06991D601ED91FC91C5
:101740000190F081E02DC6010995080F191FF1CF16
:10175000C801DF91CF911F910F91FF90EF90DF9023
:10176000CF9008956115710581F0DB010D90002087
:10177000E9F7AD0141505109461B570BDC01ED91D2
:10178000FC910280F381E02D099480E090E00895BF
:101790000C94B20BDC01ED91FC910190F081E02DF5
:1017A00009940F931F93CF93DF93EC016DE00E9498
:1017B000CA0B8C016AE0CE010E94CA0B800F911FF8
:1017C000DF91CF911F910F9108950F931F93CF93A6
:1017D000DF93EC010E94B20B8C01CE010E94D10B71
:1017E000800F911FDF91CF911F910F9108958F92DC
:1017F0009F92AF92BF92CF92DF92EF92FF920F93A0
:101800001F93CF93DF93CDB7DEB7A1970FB6F894B0
:10181000DEBF0FBECDBF7C01C42EE52FCB01D22E83
:1018200019A221E02D1510F02AE0D22E8E010F5DB5
:101830001F4F8D2C912CA12CB12C6C2D7E2FA5012E
:1018400094010E94BD138C2DD29E80191124015049
:1018500011098A3014F4805D01C0895CF80180832D
:10186000211531054105510521F0C22EE32FCA0192
:10187000E4CFB801C7010E94B20BA1960FB6F8944D
:10188000DEBF0FBECDBFDF91CF911F910F91FF90B3
:10189000EF90DF90CF90BF90AF909F908F90089582
:1018A000CF92DF92EF92FF920F931F93CF93DF932C
:1018B000EC016A017B012115310579F4E881F98198
:1018C0000190F081E02D642FDF91CF911F910F9156
:1018D000FF90EF90DF90CF9009942A303105E9F422
:1018E00077FF1AC06DE20E94CA0B8C01442755276E
:1018F000BA014C195D096E097F092AE0CE010E94E8
:10190000F70B800F911FDF91CF911F910F91FF90E7
:10191000EF90DF90CF9008952AE0B701A601CE01A5
:10192000DF91CF911F910F91FF90EF90DF90CF90BB
:101930000C94F70B9A01AB01662757FD6095762F43
:101940000C94500C0F931F93CF93DF93EC019A01EB
:10195000AB01662757FD6095762F0E94500C8C01D5
:10196000CE010E94D10B800F911FDF91CF911F916B
:101970000F91089540913B0350913C03209139030E
:1019800030913A0342175307B4F49091E8009570F0
:10199000E1F39091E80092FD19C08093F1008091ED
:1019A0003B0390913C0301968F739927892B19F47F
:1019B0008EEF8093E80080913B0390913C03019669
:1019C00090933C0380933B0381E0089580E0089569
:1019D000CF92DF92FF920F931F93CF93DF931F92CB
:1019E000CDB7DEB7082F162F862F880F8E5F99830D
:1019F0000E94BA0C83E00E94BA0CF02EC02E99818E
:101A0000D92E8C2D8F19811778F4F60184910E94BC
:101A1000BA0C082F80E00E94BA0C8023FFEFCF1A87
:101A2000DF0A8111EECF01C081E00F90DF91CF91ED
:101A30001F910F91FF90DF90CF900895615030F08B
:101A40002091F100FC0120830196F8CF289884E6CC
:101A500080933E0308952FB7FC012083F8946770AC
:101A60006093E9000895CF93DF931F92CDB7DEB75F
:101A7000682FCE0101960E942B0D8091F200998172
:101A80009FBF0F90DF91CF910895FF920F931F9307
:101A9000CF93DF9300D0CDB7DEB7F62E8A019091B9
:101AA0003D03992311F057FF03C08FEF9FEF2BC029
:101AB000682FCE0101967A830E942B0D8091F2004F
:101AC00090E0A8017A81801791070CF4AC01EF2D0A
:101AD000F72FF40E84E6FE1639F0289880933E0323
:101AE0009091F1009193F7CF4115510521F080912C
:101AF000F200882321F089818FBFCA0104C08BE6E0
:101B00008093E800F8CF0F900F90DF91CF911F9155
:101B10000F91FF900895CF93DF931F92CDB7DEB75B
:101B200041E050E0BE016F5F7F4F0E94450D01977D
:101B300019F4898190E002C08FEF9FEF0F90DF9141
:101B4000CF910895CF93DF931F92CDB7DEB7682F63
:101B5000CE0101960E942B0D9091E800892F807292
:101B600095FF04C09091F20080E4891B99819FBF8A
:101B70000F90DF91CF9108956F927F928F929F92F5
:101B8000AF92BF92CF92DF92EF92FF920F931F938B
:101B9000CF93DF931F92CDB7DEB7782E7B01C42E93
:101BA000B52E80913D03882369F0042F152F8AEF0D
:101BB000D82E872D8072982E9AE3A92E872D8074B7
:101BC000882E11C08FEF9FEF57C0872D0E94A20D66
:101BD000682E81110CC0DA94A9F361E070E080E016
:101BE00090E00E9406090115110579F73BC0282FE6
:101BF00030E0021713070CF4602E672DCE0101961A
:101C00000E942B0D8091E80085FF29C0262D30E031
:101C1000021B130B992039F06A948FEF6816B1F00C
:101C20001092F100F9CFF701862D77FE07C08150A1
:101C300058F094919093F1003196F9CF815020F0B3
:101C400091919093F100FACFE20EF31E8091E8009B
:101C500085FF0FC00115110511F481100AC089819B
:101C60008FBFC1CF5D9884E680933F038C2D9B2D61
:101C700003C0A092E800F3CF0F90DF91CF911F91A6
:101C80000F91FF90EF90DF90CF90BF90AF909F901B
:101C90008F907F906F9008951092E90010923C030E
:101CA00010923B0390933A03809339030895CF92A7
:101CB000DF92FF920F931F93CF93DF9300D0CDB7A6
:101CC000DEB7F82E8A016B0101151105B1F0F6019E
:101CD000F7FE02C0849101C0808149835A830E942B
:101CE000BA0C01501109FFEFCF1ADF0A49815A815E
:101CF0008111EACF8FEF9FEF01C0CA010F900F90C3
:101D0000DF91CF911F910F91FF90DF90CF900895B9
:101D10001F93CF93DF931F92CDB7DEB7162F20917D
:101D2000E80022FFFCCF612F79830E941E0D8BEF0C
:101D30008093E800812F7981972F0F90DF91CF91C9
:101D40001F910895CF93DF931F92CDB7DEB719820D
:101D5000CE0101960E94F30ACE0101960E947D10E9
:101D6000898190E00F90DF91CF9108951F920F929B
:101D70000FB60F921124EF92FF920F931F932F93A0
:101D80003F934F935F936F937F938F939F93AF9303
:101D9000BF93EF93FF93CF93DF93CDB7DEB76297F7
:101DA000DEBFCDBF1092E9008091E80083FFEBC059
:101DB00068E0CE010A960E941E0D82EF8093E80033
:101DC0009A8597FF05C08091E80080FFFCCF03C093
:101DD0008EEF8093E800892F807609F0B9C08B855B
:101DE000811105C01092F1001092F100C5C0282F9A
:101DF0002D7F213009F4C0C0853049F48091E8007E
:101E000080FFFCCF8C8580688093E300B5C086306E
:101E100009F076C02D85E888F988223071F580E0D8
:101E200090E02A8B0E944C0E0E94A20E99E08E0137
:101E30000F5F1F4FF801392F11923A95E9F79983F7
:101E40002A892A8391E09E8390E898879AEF998760
:101E500020913B0330913C03275F3F4F3C832B8312
:101E60008D83C7010E944C0E49E050E0B80180E02C
:101E70000E94570E0E94A20E7FC0C7012A8B0E94AB
:101E80004C0E2A89223241F482E290E00E948810AE
:101E9000892B09F071C074C0213069F4888999894F
:101EA000089711F42093380380913803811118C0EA
:101EB00063EB71E01AC0233009F062C08C8588237F
:101EC00091F0823021F460E181ED91E006C0813033
:101ED00009F056C06BE085EC91E00E94E80C4AC026
:101EE00061EA71E002C062EE71E06115710509F40A
:101EF00047C0FB01449150E080E80E94570E3CC06F
:101F0000873009F43DC0883021F481E08093F100EE
:101F100033C0893089F5937099F5EDE9F1E081E0FE
:101F200021E096E38093E9002093EB003491309315
:101F3000EC009093ED008F5F3196853099F78EE736
:101F40008093EA001092EA008C8580933D0314C0D0
:101F5000888999890E944C0E8E85811105C0CE0119
:101F60000A960E94FE0A06C0823051F4CE010A96FB
:101F70000E94B010882321F08EEF8093E80003C008
:101F800081E28093EB0062960FB6F894DEBF0FBE3D
:101F9000CDBFDF91CF91FF91EF91BF91AF919F9115
:101FA0008F917F916F915F914F913F912F911F91F1
:101FB0000F91FF90EF900F900FBE0F901F9018950C
:101FC0008093E9008091F200882319F08AE38093DE
:101FD000E80008951F920F920FB60F9211242F93CD
:101FE0003F934F935F936F937F938F939F93AF93A1
:101FF000BF93EF93FF938091E1001092E10083FF84
:102000000FC01092E90091E09093EB001092EC0069
:1020100092E39093ED0010923D0398E09093F000CE
:1020200082FF1DC083E00E94E00F80913F03882360
:1020300039F080913F03815080933F03882369F0FA
:1020400080913E03882359F080913E038150809314
:102050003E03811104C0289A02C05D9AF1CFFF911E
:10206000EF91BF91AF919F918F917F916F915F9110
:102070004F913F912F910F900FBE0F901F90189589
:1020800010923D0381E08093D70080EA8093D800CE
:1020900082E189BD09B400FEFDCF61E070E080E01F
:1020A00090E00E94060980E98093D8008CE080933C
:1020B000E2001092E000559A209A08950895FF9248
:1020C0000F931F93CF93DF93EC01F62EE881F981F4
:1020D0000480F581E02D09958C01E881F981068065
:1020E000F781E02D6F2DCE010995C8019927DF9169
:1020F000CF911F910F91FF900895FC0120812F5FD8
:10210000208349E150E066E672E080E80C94570EC7
:1021100045E650E06FE772E080E80C94570EEF92CE
:10212000FF920F931F93CF93DF931F92CDB7DEB72C
:1021300089838B017A0141E050E0BE016F5F7F4FE0
:1021400084E00E94BC0DA701B80184E40E94BC0D8C
:102150000F90DF91CF911F910F91FF90EF90089515
:10216000FC0191818081813A31F481E0913091F0DC
:10217000933089F411C0813271F49B3021F4828153
:102180008093940105C09A3031F482818093930149
:1021900081E00895089580E0089548E050E082E0ED
:1021A0000C948F10CF93DF93DC01683818F0E8E7C8
:1021B000E60F25C0E62FF0E067FF11C0E058F109F7
:1021C00081E090E001C0880FEA95EAF714969C91AF
:1021D0001497982B14969C931497E0E010C0EA5142
:1021E000FE4FE491EE2309F440C0E7FF08C01496C7
:1021F0008C911497826014968C931497EF771696AF
:102200008C9116978E1741F117968C9117978E1710
:1022100019F118968C9118978E17F1F019968C91E8
:1022200019978E17C9F01A968C911A978E17A1F0EC
:102230001B968C911B978E1779F080E090E0ED0152
:10224000C80FD91F2E81211102C0EE8305C001964F
:1022500086309105A1F709C0BD016C5F7F4FCD01AC
:102260000E94CD1081E090E008C081E090E01396DC
:102270009C938E93129780E090E0DF91CF91089528
:10228000683818F0E8E7E60F25C0E62FF0E067FFB2
:1022900012C0E058F10921E030E001C0220FEA95B8
:1022A000EAF72095DC0114963C911497322314969A
:1022B0003C93E0E00FC0EA51FE4FE491EE2329F198
:1022C000E7FF08C0DC0114962C9114972D7F14961B
:1022D0002C93EF7720E030E0EE2351F0DC01A20FE9
:1022E000B31F16964C9116974E1302C016961C9269
:1022F0002F5F3F4F2630310579F7BC016C5F7F4F70
:102300000E94CD1081E090E0089580E090E0089573
:10231000FC0116821782108611861286138614829B
:10232000BC016C5F7F4F0C94CD1010924C03109247
:102330004303109242038EE992E09093410380930D
:10234000400308955058BB27AA270ED075C166D107
:1023500030F06BD120F031F49F3F11F41EF45BC1DB
:102360000EF4E095E7FB51C1E92F77D180F3BA175E
:10237000620773078407950718F071F49EF58FC103
:102380000EF4E0950B2EBA2FA02D0B01B901900190
:102390000C01CA01A0011124FF27591B99F0593FD4
:1023A00050F4503E68F11A16F040A22F232F342F1C
:1023B0004427585FF3CF469537952795A795F0406A
:1023C0005395C9F77EF41F16BA0B620B730B840B7F
:1023D000BAF09150A1F0FF0FBB1F661F771F881F37
:1023E000C2F70EC0BA0F621F731F841F48F487958F
:1023F00077956795B795F7959E3F08F0B3CF93957E
:10240000880F08F09927EE0F979587950895D9D0F2
:1024100008F481E008950CD00FC107D140F0FED040
:1024200030F021F45F3F19F0F0C0511139C1F3C011
:1024300014D198F39923C9F35523B1F3951B550B88
:10244000BB27AA2762177307840738F09F5F5F4F87
:10245000220F331F441FAA1FA9F333D00E2E3AF0C8
:10246000E0E830D091505040E695001CCAF729D0E2
:10247000FE2F27D0660F771F881FBB1F2617370731
:102480004807AB07B0E809F0BB0B802DBF01FF2761
:1024900093585F4F2AF09E3F510568F0B6C000C1C7
:1024A0005F3FECF3983EDCF3869577956795B7959B
:1024B000F7959F5FC9F7880F911D9695879597F9B6
:1024C0000895E1E0660F771F881FBB1F621773072F
:1024D0008407BA0720F0621B730B840BBA0BEE1F44
:1024E00088F7E095089504D06894B111D9C0089593
:1024F000BCD088F09F5790F0B92F9927B751A0F022
:10250000D1F0660F771F881F991F1AF0BA95C9F787
:1025100012C0B13081F0C3D0B1E00895C0C0672FC0
:10252000782F8827B85F39F0B93FCCF38695779537
:102530006795B395D9F73EF4909580957095619520
:102540007F4F8F4F9F4F0895E89409C097FB3EF44B
:1025500090958095709561957F4F8F4F9F4F9923F0
:10256000A9F0F92F96E9BB279395F695879577956E
:102570006795B795F111F8CFFAF4BB0F11F460FF2E
:102580001BC06F5F7F4F8F4F9F4F16C0882311F086
:1025900096E911C0772321F09EE8872F762F05C09A
:1025A000662371F096E8862F70E060E02AF09A9535
:1025B000660F771F881FDAF7880F9695879597F92A
:1025C0000895990F0008550FAA0BE0E8FEEF1616C4
:1025D0001706E807F907C0F012161306E407F50717
:1025E00098F0621B730B840B950B39F40A2661F08B
:1025F000232B242B252B21F408950A2609F4A1402E
:10260000A6958FEF811D811D089597F99F6780E83A
:1026100070E060E008959FEF80EC089500240A9434
:102620001616170618060906089500240A941216AD
:102630001306140605060895092E0394000C11F4E0
:10264000882352F0BB0F40F4BF2B11F460FF04C08D
:102650006F5F7F4F8F4F9F4F089557FD9058440FE6
:10266000551F59F05F3F71F04795880F97FB991FF1
:1026700061F09F3F79F087950895121613061406AE
:10268000551FF2CF4695F1DF08C01616170618063B
:10269000991FF1CF86957105610508940895E89416
:1026A000BB2766277727CB0197F908958ADF08F4BF
:1026B0008FEF08950BD0C0CFB1DF28F0B6DF18F050
:1026C000952309F0A2CFA7CF1124EACFC6DFA0F34C
:1026D000959FD1F3950F50E0551F629FF001729FB7
:1026E000BB27F00DB11D639FAA27F00DB11DAA1FD6
:1026F000649F6627B00DA11D661F829F2227B00D23
:10270000A11D621F739FB00DA11D621F839FA00DAD
:10271000611D221F749F3327A00D611D231F849FFD
:10272000600D211D822F762F6A2F11249F57504054
:102730008AF0E1F088234AF0EE0FFF1FBB1F661FEF
:10274000771F881F91505040A9F79E3F510570F0A8
:102750005CCFA6CF5F3FECF3983EDCF38695779590
:102760006795B795F795E7959F5FC1F7FE2B880FA3
:10277000911D9695879597F90895A1E21A2EAA1BA7
:10278000BB1BFD010DC0AA1FBB1FEE1FFF1FA21721
:10279000B307E407F50720F0A21BB30BE40BF50B1E
:1027A000661F771F881F991F1A9469F760957095A7
:1027B000809590959B01AC01BD01CF010895EE0F6E
:1027C000FF1F0590F491E02D0994CF93DF938230A1
:1027D000910510F482E090E0E0914F03F0915003F6
:1027E00020E030E0A0E0B0E0309739F14081518145
:1027F00048175907B8F04817590771F48281938137
:10280000109729F013969C938E9312972CC0909357
:10281000500380934F0327C02115310531F0421733
:10282000530718F0A901DB0101C0EF019A01BD01B6
:10283000DF010280F381E02DD7CF21153105F9F0BA
:10284000281B390B2430310580F48A819B81611566
:10285000710521F0FB019383828304C090935003A0
:1028600080934F03FE01329644C0FE01E20FF31F36
:102870008193919322503109398328833AC0209162
:102880004D0330914E03232B41F4209102013091EE
:10289000030130934E0320934D03209100013091AA
:1028A00001012115310541F42DB73EB740910401D6
:1028B00050910501241B350BE0914D03F0914E031F
:1028C000E217F307A0F42E1B3F0B2817390778F007
:1028D000AC014E5F5F4F2417350748F04E0F5F1F66
:1028E00050934E0340934D038193919302C0E0E0D7
:1028F000F0E0CF01DF91CF910895CF93DF93009760
:1029000009F487C0FC01329713821282C0914F03F1
:10291000D0915003209781F420813181280F391FF5
:1029200080914D0390914E038217930779F5F093B0
:102930004E03E0934D036DC0DE0120E030E0AE17A2
:10294000BF0750F412964D915C9113979D0141156C
:10295000510509F1DA01F3CFB383A283408151819C
:10296000840F951F8A179B0771F48D919C91119785
:10297000840F951F02969183808312968D919C916E
:102980001397938382832115310529F4F093500323
:10299000E0934F033EC0D9011396FC93EE93129738
:1029A0004D915D91A40FB51FEA17FB0779F4808163
:1029B0009181840F951F0296D90111969C938E9355
:1029C0008281938113969C938E931297E0E0F0E0BE
:1029D0008A819B81009719F0FE01EC01F9CFCE01AD
:1029E000029628813981820F931F20914D033091E7
:1029F0004E032817390769F4309729F410925003D1
:102A000010924F0302C013821282D0934E03C093E0
:102A10004D03DF91CF91089581E090E0F8940C94FC
:102A2000111512E0CAEED2E004C0FE010E94E113CB
:0C2A30002296CC3ED107C9F7F894FFCFE6
:102A3C0000005103800000011000000080400000E5
:102A4C00A0400000C0400000E04000000041000039
:102A5C001041000020410000404100006041000096
:102A6C008041000090410000A0410000C8410000DE
:102A7C00F04100000C4200002042CDCC2C408FC213
:102A8C001540000000400AD7E33F14AEC73F333374
:102A9C00B33F85EBA13F14AE873F1F856B3FCDCC79
:102AAC004C3FA4703D3FC3F5283FB81E053F3D0A7F
:102ABC00D73EEC51B83E0AD7A33E0100E10000001E
:102ACC00000000010100000000940A00000000B7A3
:102ADC000173746570202320007374617475733AEC
:102AEC0000557064617465206C696E652064617456
:102AFC0061003B206F7065726174696F6E20746940
:102B0C006D653A20006D6373004C656674206C69CA
:102B1C006E6520646174613A2000526967687420A4
:102B2C006C696E6520646174613A2000456E656D58
:102B3C007920696E2066726F6E743A2000456E655E
:102B4C006D7920626568696E643A2000456E656D2A
:102B5C0079206F6620746865206C6566743A200075
:102B6C00456E656D79206F662074686520726967A3
:102B7C0068743A20004C65667420616E616C6F67F6
:102B8C002064697374616E63653A200052696768EA
:102B9C007420616E616C6F672064697374616E631D
:102BAC00653A2000416363656C65726174696F6E90
:102BBC00206D6F64756C653A200000000000960A69
:102BCC00DD0AC00AD00AAC0ABD0A000000005F1082
:082BDC008A0BD2104011881190
:00000001FF
